:020000040000FA
:060000000A128A110C280F
:10000800FE00030EFA000A08FB000A128A11EA2809
:100018000A128A110F28F001F101F201F301F4012B
:10002800F501F601F701F80183120313A001A101FC
:10003800A201A301A40183010A128A1123280A122A
:100048008A1160210A128A11033083120313A50052
:100058000030A6000A128A1184210A128A1183121A
:10006800031308145A307206031D3B283C28BF2886
:10007800F20108140130A2070318A30A0030A307ED
:100088007808031D482849284A281F157803031DA6
:100098004E284F2850281F110130A7002708F807BD
:1000A80002307802031C59285A285B28F8019F1847
:1000B8005E285F286128F701F70A003023020F3015
:1000C80003192202031C69286A28BF28A201A30178
:1000D8002A30760203187128722877280330A50081
:1000E8000030A600BF282B307602031C7C287D2810
:1000F80088285430760203188228832888280430F8
:10010800A5000030A600BF2855307602031C8D28B4
:100118008E2899287E3076020318932894289928E7
:100128000530A5000030A600BF287F307602031CEA
:100138009E289F28AA28A83076020318A428A52854
:10014800AA280630A5000030A600BF28A9307602EC
:10015800031CAF28B028BB28D73076020318B5286F
:10016800B628BB280730A5000030A600BF280830F5
:10017800A5000030A6007208A700A80128082602DA
:10018800031DC828270825020318CB28CC28CD280A
:1001980008107703031DD128D2283628F7017808DC
:1001A800031DD728D828DC281E08A7002708F60032
:1001B8007803031DE028E128E5281E08A700270882
:1001C800F5009F1436280A128A110C280B1DED28F9
:1001D800EE28FB280130F9007908F2070130F90010
:1001E8007908F3070B11E730831203138100831298
:1001F80003138C1D0029012959291412141B0529E0
:1002080006290A29941F09290A2911291308F9001E
:100218007908F10014139413141683160313941A0F
:1002280016291729352914191A291B293529831242
:1002380003131308F9007908F1008C1114168316BA
:100248000313141C282929292329831203131308AB
:10025800F9007908A400A630F900F90B312900004B
:100268005629941A382939295629141D3C293D291B
:100278005629831203131308F9007908F10083162D
:100288000313141070088312031393001416A63076
:10029800F900F90B4D29000083160313141855298A
:1002A80056295029831203138C117B088A007A0E71
:1002B8008300FE0E7E0E09000330831603138500AB
:1002C80003308316031788008901831603138601F8
:1002D8008701880189018312031386018701880138
:1002E80089018316031381128111011081140111F0
:1002F8008B160B118B17E73083120313810008004C
:10030800831603139F139F121F12831203139F1741
:0E0318001F139F121F129F111F111F140800A8
:04400E00D4E0FFFFFC
:00000001FF
