:020000040000FA
:060000000A128A110C280F
:10000800FE00030EF9000A08FA000A128A11E5290F
:100018000A128A110F280A128A1179220A128A11E1
:10002800AC000A128A117A220A128A11AD000A1249
:100038008A117B220A128A11AE000A128A117C22C6
:100048000A128A11AF00B001B101B201F001F10149
:10005800F201F301F401F501F601F70183010A1237
:100068008A1136280A128A115D220A128A1183120D
:1000780003130619402841284728861D4428452887
:10008800472808128816061D4A284B285128861921
:100098004E284F28512808168812A201A20A861E47
:1000A800562857285C28061E5A285B285C28A20177
:1000B800220C031C891003188914A301A30A061F24
:1000C800662867286C28061E6A286B286C28A301F6
:1000D800230C031C0910031809140310861F0314AA
:1000E800031877287B288312031309157E288312A7
:1000F800031309113203031D822883282E29861928
:1001080086288728BB28061D8A288B28BB28A40197
:10011800A50183120313881F922893289628881311
:100128000817982888170813823083120313A10030
:10013800DD30A000A00B9E28A10B9E280130831261
:100148000313A4070318A50A0030A5072508803A59
:10015800FF0080307F02031DB32806302402031CF1
:10016800B628B7288D288312031388130813061995
:10017800BE28BF282D29861DC228C3282D298812EC
:10018800081225293003031DCA28CB28CF28B0011F
:1001980008178813D328B001B00A08138817A801D4
:1001A800A9018312031328082904031DDC28DD286C
:1001B800ED280814881008118811273083120313BA
:1001C800A100F430A000A00BE728A10BE72800004D
:1001D800102928032904031DF228F328F8280810F9
:1001E800881408118811E128023028062904031D03
:1001F800FE28FF2804290810881008158811E1280E
:10020800033028062904031D0A290B291029081080
:10021800881008118815E128013083120313A807F4
:100228000318A90A0030A9072908803AFF0080307E
:100238007F02031D212904302802031C24292529B3
:10024800D5288312031386192A292B29C6280813AF
:100258008813B2013103031D322933293B28861D37
:10026800362937296B2906193A293B296B29A60112
:10027800A70183120313881F42294329462988139B
:100288000817482988170813823083120313A1001E
:10029800DD30A000A00B4E29A10B4E29013083129E
:1002A8000313A6070318A70A0030A7072708803AF0
:1002B800FF0080307F02031D632906302602031CDD
:1002C800662967293D298312031388130813061D1D
:1002D8006E296F29E029861972297329E029881265
:1002E8000812D8293003031D7A297B297F29B001F8
:1002F800081788138329B001B00A08138817043037
:10030800AA000030AB00831203132A032B04031D39
:100318008E298F299F2908148810081188112730E1
:1003280083120313A100F430A000A00B9929A10B9C
:1003380099290000C32902302A062B04031DA52988
:10034800A629AB29081088140811881193290330AD
:100358002A062B04031DB129B229B72908108810D1
:1003680008158811932904302A062B04031DBD297A
:10037800BE29C32908108810081188159329FF3051
:1003880083120313AA070318AB0AFF30AB072B0825
:10039800803AFF0080307F02031DD42901302A02F1
:1003A8000318D729D8298729831203130619DD29A9
:1003B800DE29762908138813B1013B280A128A110D
:1003C8000C280B1CE829E929F829831203130618BD
:1003D800EE29EF29F129B201B20A8618F429F52984
:1003E800F729B101B10A0B10831203138C1DFD29E3
:1003F800FE29562A1412141B022A032A072A941FBC
:10040800062A072A0E2A1308F8007808F60014139B
:100418009413141683160313941A132A142A322ACF
:100428001419172A182A322A831203131308F800FA
:100438007808F6008C11141683160313141C252A49
:10044800262A202A831203131308F8007808F500D7
:10045800A630F800F80B2E2A0000532A941A352AE1
:10046800362A532A141D392A3A2A532A8312031387
:100478001308F8007808F60083160313141072089E
:100488008312031393001416A630F800F80B4A2AB7
:100498000000831603131418522A532A4D2A831274
:1004A80003138C117A088A00790E8300FE0E7E0EE3
:1004B8000900831603138501831603178801890130
:1004C800FF30831603138600870188018901831290
:1004D80003138501870188018901033083160313FB
:1004E80096000B108B158B170800323400340F342C
:0204F8000034CE
:04400E00D4E0FFFEFD
:00000001FF
