:020000040000FA
:100000000A128A11F32F00308A000408840A82073A
:10001000003430343034003431343034003430344F
:10002000313400343134313400343034323400343B
:1000300031343234003430343334003431343334F6
:100040000034303434340034313434340034303417
:1000500035340034313435340034303436340034FF
:1000600031343634003430343734003430343834BA
:0800700000343034393400344F
:1008440064008001840A0406031900340406232C7E
:100854000A128A1152240A128A11831603131114DC
:1008640008000A128A1152240A128A1183160313E9
:10087400111508000A128A1152240A128A117008EA
:100884008312031393000800F00083160313981CCB
:100894004C2C4D2C472C700883120313990008002C
:1008A400831603131419572C582C522C11081F3972
:1008B400031D5D2C5E2C522C0800F301F4017D2CE9
:1008C400F501F6010130F5070318F60A0030F607C2
:1008D4007608803AFF0080307F02031D732CFF30BE
:1008E4007502031C762C772C642C0130F307031853
:1008F400F40A0030F4077408803AF2007108803A70
:100904007202031D872C70087302031C8A2C8B2C23
:10091400622C08000A128A1152240A128A118316C0
:10092400031391150A128A1152240A128A1183128E
:1009340003131308F200F3017208F4007308F500BE
:100944000A128A1152240A128A1170037104031DB7
:10095400AC2CAD2CB12C831603139112B42C83163A
:100964000313911611167508F1007408F0000800BD
:100974008316031788018901831603138501003048
:1009840083120313BF000130BE008630BD00A030C7
:10099400BC000A128A11EA240A128A118312031370
:1009A400B001B101BA01BB01B601B701B801B90187
:1009B400B401B5010030C5000030C4002530C300C7
:1009C4008030C2000A128A1125260A128A110800F0
:1009D40028308312031394008316031391018312A6
:1009E40003133C08C0003D08C1003E08C2003F0894
:1009F400C30002300310C00DC10DC20DC30DFF3E74
:100A0400031DFC2C4308F3004208F2004108F100E6
:100A14004008F0000030F7007A30F6001230F5009C
:100A24000030F4000A128A1122250A128A11700871
:100A3400FF3E8316031393009401871507160800DD
:100A44000030FC000030FB000030FA000030F900F8
:100A540073087204710470040319312D322D7F2D33
:100A6400FD01FD0A422D0130F8000310F00DF10DD7
:100A7400F20DF30DF80B372D0130F8007808FD075F
:100A8400F31F452D462D352D0130F8000310F90DC7
:100A9400FA0DFB0DFC0DF80B482D73087702031DAE
:100AA4005D2D72087602031D5D2D71087502031D0C
:100AB4005D2D70087402031C602D612D702D70086B
:100AC400F4027108031C710FF5027208031C720F03
:100AD400F6027308031C730FF70279140130031034
:100AE400F30CF20CF10CF00CFF3E031D712D0130E0
:100AF400FD02031D7E2D7F2D462D7C08F3007B080F
:100B0400F2007A08F1007908F00008008312031358
:100B1400BD01F31F8E2D8F2D9C2DF009F109F209D3
:100B2400F309F00A0319F10A0319F20A0319F30A83
:100B3400BD01BD0AF71F9F2DA02DAF2DF409F509A6
:100B4400F609F709F40A0319F50A0319F60A031951
:100B5400F70A0130F8007808BD060030C100003003
:100B6400C0000030BF000030BE007308720471047E
:100B740070040319BE2DBF2D0C2EBC01BC0ACF2D51
:100B84000130F8000310F00DF10DF20DF30DF80B28
:100B9400C42D0130F8007808BC07F31FD22DD32DE3
:100BA400C22D0130F8000310BE0DBF0DC00DC10DE4
:100BB400F80BD52D73087702031DEA2D720876020F
:100BC400031DEA2D71087502031DEA2D70087402D5
:100BD400031CED2DEE2DFD2D7008F4027108031C8D
:100BE400710FF5027208031C720FF6027308031CDE
:100BF400730FF7023E1401300310F30CF20CF10CE6
:100C0400F00CFF3E031DFE2D0130BC02031D0B2E14
:100C14000C2ED32D3D080319102E112E1C2EBE09A7
:100C2400BF09C009C109BE0A0319BF0A0319C00AD2
:100C34000319C10A4108F3004008F2003F08F1001B
:100C44003E08F0000800831203134208C60043085C
:100C5400C7004408C8004508C90006300310C60D83
:100C6400C70DC80DC90DFF3E031D302E4908F30002
:100C74004808F2004708F1004608F0004208CA009C
:100C84004308CB004408CC004508CD0006300310CF
:100C9400CA0DCB0DCC0DCD0DFF3E031D492E0030EA
:100CA400CE001230CF007A30D0000030D1004A0894
:100CB400CE024B08031C4B0F602E612ECF024C0852
:100CC400031C4C0F662E672ED0024D08031C4D0FDB
:100CD4006C2E6D2ED1025108F7005008F6004F0813
:100CE400F5004E08F4000A128A1188250A128A11A6
:100CF4007108FA007008F90001307A020030031913
:100D04007902031C862E872EE32E831203134208D6
:100D1400C6004308C7004408C8004508C900043099
:100D24000310C60DC70DC80DC90DFF3E031D922E3D
:100D34004908F3004808F2004708F1004608F000AB
:100D44004208CA004308CB004408CC004508CD0043
:100D540004300310CA0DCB0DCC0DCD0DFF3E031D89
:100D6400AB2E0030CE001230CF007A30D0000030ED
:100D7400D1004A08CE024B08031C4B0FC22EC32ECF
:100D8400CF024C08031C4C0FC82EC92ED0024D08AC
:100D9400031C4D0FCE2ECF2ED1025108F700500860
:100DA400F6004F08F5004E08F4000A128A1188254F
:100DB4000A128A117108FA007008F90083160313E5
:100DC400181501307A020030031979020318EB2E4A
:100DD400EC2EFE2E79088316031399001812831241
:100DE4000313981783160313871707178312031324
:100DF400181683160313981608000A128A11BA24C7
:100E04000A128A110A128A112A240A128A115130EA
:100E1400F0000030F1000A128A113C240A128A11EF
:100E24000030F000F1000A128A118C240A128A118F
:100E3400710883120313BB007008BA000A128A11E6
:100E440033240A128A111430F0000030F1000A121F
:100E54008A115F240A128A110A128A112A240A1298
:100E64008A115330F0000030F1000A128A113C2438
:100E74000A128A110030F000F1000A128A118C243F
:100E84000A128A11710883120313B9007008B8009A
:100E94000A128A1133240A128A111430F000003025
:100EA400F1000A128A115F240A128A110A128A11A5
:100EB4002A240A128A115530F0000030F1000A1277
:100EC4008A113C240A128A110030F000F1000A123F
:100ED4008A118C240A128A11710883120313B70031
:100EE4007008B6000A128A1133240A128A111430C7
:100EF400F0000030F1000A128A115F240A128A11EC
:100F04000A128A112A240A128A115730F00000307A
:100F1400F1000A128A113C240A128A110030F000EE
:100F2400F1000A128A118C240A128A1171088312A0
:100F34000313B5007008B4000A128A1133240A128C
:100F44008A111430F0000030F1000A128A115F2473
:100F54000A128A118312031332083304031DB32FB8
:100F6400B42FC32F3A080A128A1146240A128A118E
:100F7400013083120313B2070318B30A0030B30716
:100F8400042F32033304031DC82FC92FD02F360872
:100F94000A128A1146240A128A11BA2F0230320622
:100FA4003304031DD62FD72FDE2F34080A128A11DB
:100FB40046240A128A11BA2F033032063304031D61
:100FC400E42FE52FEB2F38080A128A1146240A125F
:100FD4008A1183120313B201B301042F0A128A1176
:100FE40000288313203084003C300A128A11222402
:0C0FF4000A128A1183010A128A11FF2ED2
:04400E00F5E3FFFFD8
:00000001FF
