:020000040000FA
:100000000A128A11ED2F00308A000408840A820740
:10001000003430343034003431343034003430344F
:10002000313400343134313400343034323400343B
:1000300031343234003430343334003431343334F6
:100040000034303434340034313434340034303417
:1000500035340034313435340034303436340034FF
:1000600031343634003430343734003430343834BA
:0800700000343034393400344F
:100D200064008001840A0406031900340406912E2D
:100D30000A128A11B4260A128A1183160313111497
:100D400008000A128A11B4260A128A1183160313A4
:100D5000111508000A128A11B4260A128A117008A5
:100D60008312031393000800831603131419B92E7A
:100D7000BA2EB42E11081F39031DBF2EC02EB42E5B
:100D80000800F301F401DF2EF501F6010130F5074B
:100D90000318F60A0030F6077608803AFF00803024
:100DA0007F02031DD52EFF307502031CD82ED92ECD
:100DB000C62E0130F3070318F40A0030F407740854
:100DC000803AF2007108803A7202031DE92E700821
:100DD0007302031CEC2EED2EC42E08000A128A1199
:100DE000B4260A128A118316031391150A128A1166
:100DF000B4260A128A11831203131308F200F301B6
:100E00007208F4007308F5000A128A11B4260A1257
:100E10008A1170037104031D0E2F0F2F132F8316D9
:100E200003139112162F83160313911611167508CA
:100E3000F1007408F00008000A128A1198260A12BC
:100E40008A115130F0000030F1000A128A11AA26EE
:100E50000A128A110030F000F1000A128A11EE26FF
:100E60000A128A117108FC007008FB000A128A112C
:100E7000A1260A128A111430F0000030F1000A1283
:100E80008A11C1260A128A110A128A1198260A1298
:100E90008A115330F0000030F1000A128A11AA269C
:100EA0000A128A110030F000F1000A128A11EE26AF
:100EB0000A128A117108FA007008F9000A128A11E0
:100EC000A1260A128A111430F0000030F1000A1233
:100ED0008A11C1260A128A110A128A1198260A1248
:100EE0008A115530F0000030F1000A128A11AA264A
:100EF0000A128A110030F000F1000A128A11EE265F
:100F00000A128A117108F8007008F7000A128A1193
:100F1000A1260A128A111430F0000030F1000A12E2
:100F20008A11C1260A128A110A128A1198260A12F7
:100F30008A115730F0000030F1000A128A11AA26F7
:100F40000A128A110030F000F1000A128A11EE260E
:100F50000A128A11710883120313B1007008B000DD
:100F60000A128A11A1260A128A111430F0000030E8
:100F7000F1000A128A11C1260A128A117B08831213
:100F8000031386001430F0000030F1000A128A11B9
:100F9000C1260A128A1179088312031386001430BD
:100FA000F0000030F1000A128A11C1260A128A11DB
:100FB00077088312031386001430F0000030F1002C
:100FC0000A128A11C1260A128A11831203133008E9
:100FD00086001C2F0A128A110028F701F801F90176
:100FE000FA01FB01FC0183132030840032300A1225
:100FF0008A1190260A128A1183010A128A111C2F63
:04400E00F5E3FFFFD8
:00000001FF
