:020000040000FA
:060000000A128A110C280F
:10000800FE00030EF2000A08F3000A128A11BE2845
:100018000A128A110F28F601F701F801F901831273
:100028000313A401A50183010A128A11B1298C289E
:10003800831603139F014130831203139F00BD28C9
:10004800831603139F014530831203139F00BD28B5
:10005800831603139F014930831203139F00BD28A1
:10006800831603139F014D30831203139F00BD288D
:10007800831603139F015130831203139F00BD2879
:10008800831603139F015530831203139F00BD2865
:10009800831603139F015930831203139F00BD2851
:1000A800831603139F015D30831203139F00BD283D
:1000B800831603139F016130831203139F00BD2829
:1000C800831603139F016530831203139F00BD2815
:1000D800831603139F016930831203139F00BD2801
:1000E800831603139F016D30831203139F00BD28ED
:1000F800831603139F017130831203139F00BD28D9
:10010800831603139F017530831203139F00BD28C4
:100118007508003A03199128BD287408003A031994
:100128001C28013A03192428033A03192C28013AF8
:1001380003193428073A03193C28013A03194428BB
:10014800033A03194C28013A031954280F3A0319A2
:100158005C28013A03196428033A03196C28013A08
:1001680003197428073A03197C28013A03198428CB
:10017800BD280800831203130C1FC328C428CD28E8
:100188001E08F000F1017008F8007108F9009F14CA
:100198000C138C1DD028D12835291412141BD528EE
:1001A800D628DA28941FD928DA28E4281308F0007A
:1001B800F1017008F6007108F7001413941314166F
:1001C80083160313941AE928EA280E291419ED282E
:1001D800EE280E29831203131308F000F1017008AA
:1001E800F6007108F7008C11141683160313141CFB
:1001F800FE28FF28F928831203131308F000F101E1
:100208007008A4007108A500A630F000F00B0A29B8
:1002180000003229941A112912293229141D15298E
:1002280016293229831203131308F000F10170080C
:10023800F6007108F7008316031314107808831268
:10024800031393001416A630F000F00B29290000C0
:10025800831603131418312932292C298312031306
:100268008C1173088A00720E8300FE0E7E0E090040
:1002780083120313A001A1016029A201A301013087
:1002880083120313A2070318A30A0030A307230845
:10029800803AFF0080307F02031D5429FF3022027C
:1002A800031C572958294329013083120313A00737
:1002B8000318A10A0030A10775082102031D662949
:1002C80074082002031C69296A29412908000130A1
:1002D80083160313850001308316031788008316DD
:1002E800031386010030F400F5000A128A111B205E
:1002F8000A128A113230F4000030F5000A128A110D
:100308003C210A128A11831603130C178312031354
:100318000C1354300A128A1197210A128A11831277
:1003280003139F140800F400740883160313930042
:10033800363083120313940080308316031394001D
:1003480001309100871507168B170B1783120313BB
:100358008C11831603138C1508000A128A116B215D
:100368000A128A117808831203138600B6290A1222
:040378008A110C28B2
:04400E00F5E3FFFFD8
:00000001FF
