:020000040000FA
:100000000A128A11F32F00308A000408840A82073A
:10001000003430343034003431343034003430344F
:10002000313400343134313400343034323400343B
:1000300031343234003430343334003431343334F6
:100040000034303434340034313434340034303417
:1000500035340034313435340034303436340034FF
:1000600031343634003430343734003430343834BA
:0800700000343034393400344F
:100B28000030831203138C1A01300800F00070089B
:100B38008312031393000800831203138C1EA52D40
:100B4800A62DA02D1A08080064008001840A040656
:100B5800031900340406A92D831603178801890197
:100B6800831603130711831203130715F001F1010C
:100B7800F20120300A128A11C4250A128A110800CB
:100B8800F300831603138712731DCB2DCC2DD02DA4
:100B9800720894008715D42D700872049400871188
:100BA800730871048312031394000800831203135B
:100BB800BD01F31FE02DE12DEE2DF009F109F20939
:100BC800F309F00A0319F10A0319F20A0319F30ADF
:100BD800BD01BD0AF71FF12DF22D012EF409F5090B
:100BE800F609F709F40A0319F50A0319F60A0319AD
:100BF800F70A0130F8007808BD060030C10000305F
:100C0800C0000030BF000030BE00730872047104D9
:100C180070040319102E112E5E2EBC01BC0A212E61
:100C28000130F8000310F00DF10DF20DF30DF80B83
:100C3800162E0130F8007808BC07F31F242E252E45
:100C4800142E0130F8000310BE0DBF0DC00DC10DEC
:100C5800F80B272E73087702031D3C2E72087602C4
:100C6800031D3C2E71087502031D3C2E700874028A
:100C7800031C3F2E402E4F2E7008F4027108031CEF
:100C8800710FF5027208031C720FF6027308031C39
:100C9800730FF7023E1401300310F30CF20CF10C41
:100CA800F00CFF3E031D502E0130BC02031D5D2ECB
:100CB8005E2E252E3D080319622E632E6E2EBE0968
:100CC800BF09C009C109BE0A0319BF0A0319C00A2E
:100CD8000319C10A4108F3004008F2003F08F10077
:100CE8003E08F00008000A128A11B0250A128A117B
:100CF800003083120313C5000030C4002530C30040
:100D08008030C2000A128A1119270A128A11831226
:100D18000313B001B1010A128A1194250A128A112B
:100D2800003A0319982E992EB32E0A128A11A0257B
:100D38000A128A11FB00FC017B0883120313BA0014
:100D48007C08BB000230FD000430FC00BA30FB0018
:100D5800FB0BAC2EFC0BAC2EFD0BAC2E0000831253
:100D6800031330083104031DBA2EBB2EC62E3B08D0
:100D7800B9003A08B8000130B0070318B10A0030CA
:100D8800B107F72E30033104031DCB2ECC2ED72EFE
:100D98003B08B7003A08B6000130B0070318B10A9B
:100DA8000030B107F72E023030063104031DDD2E66
:100DB800DE2EE92E3B08B5003A08B4000130B00732
:100DC8000318B10A0030B107F72E0330300631049A
:100DD800031DEF2EF02EF72E3B08B3003A08B200A1
:100DE800B001B101F72E07110330FC009730FB006A
:100DF800FB0BFC2EFC0BFC2E012F831203133A086D
:100E08000A128A119A250A128A110330FC009730B7
:100E1800FB00FB0B0D2FFC0B0D2F122F831203135E
:100E280007158F2E0A128A1100288312031342080D
:100E3800C6004308C7004408C8004508C900063072
:100E48000310C60DC70DC80DC90DFF3E031D242F85
:100E58004908F3004808F2004708F1004608F00086
:100E68004208CA004308CB004408CC004508CD001E
:100E780006300310CA0DCB0DCC0DCD0DFF3E031D62
:100E88003D2F0030CE001230CF007A30D000003035
:100E9800D1004A08CE024B08031C4B0F542F552F84
:100EA800CF024C08031C4C0F5A2F5B2FD0024D0861
:100EB800031C4D0F602F612FD1025108F700500815
:100EC800F6004F08F5004E08F4000A128A11DA25D8
:100ED8000A128A117108FA007008F90001307A02C2
:100EE800003003197902031C7A2F7B2FD72F831226
:100EF80003134208C6004308C7004408C800450851
:100F0800C90004300310C60DC70DC80DC90DFF3E3A
:100F1800031D862F4908F3004808F2004708F1002E
:100F28004608F0004208CA004308CB004408CC0039
:100F38004508CD0004300310CA0DCB0DCC0DCD0DE6
:100F4800FF3E031D9F2F0030CE001230CF007A30B5
:100F5800D0000030D1004A08CE024B08031C4B0FCA
:100F6800B62FB72FCF024C08031C4C0FBC2FBD2F38
:100F7800D0024D08031C4D0FC22FC32FD1025108B8
:100F8800F7005008F6004F08F5004E08F4000A1262
:100F98008A11DA250A128A117108FA007008F90014
:100FA80083160313181501307A02003003197902E9
:100FB8000318DF2FE02FF22F790883160313990007
:100FC800181283120313981783160313871707172A
:100FD8008312031318168316031398160800831335
:100FE800203084003C300A128A11A8250A128A117E
:080FF80083010A128A11772E11
:04400E00F5E3FFFFD8
:00000001FF
