:020000040000FA
:100000000A128A11F32F00308A000408840A82073A
:1000100000344134443443342034203443344F34A6
:1000200055344E34543445345234203446344F34ED
:100030005434003420342E342034203456342034C8
:100040002034203420342034203420342E34203402
:100050002034563400344C34413442344F3452341A
:10006000413454344F34523449344F3420343534CD
:10007000203420340034453473347434753461349E
:10008000723464346F3420344D3461346E346334EC
:1000900069346F34003449343234433420342034EA
:1000A000003431343834303432343734003430347E
:1000B00030340034313430340034303431340034AE
:1000C0003134313400343034323400343134323469
:1000D0000034303433340034313433340034303489
:1000E0003434003431343434003430343534003472
:1000F000313435340034303436340034313436342D
:100100000034303437340034303438340034303450
:10011000393400340030831203138C1A0130080084
:1001200083120313BD01F81F962897289E28F7090C
:10013000F809F70A0319F80ABD01BD0AFA1FA12838
:10014000A228AB28F909FA09F90A0319FA0A0130B9
:10015000FB007B08BD06BE01BF01770878040319C8
:10016000B228B328EA28BC01BC0AC1280130031018
:10017000F70DF80DFF3E031DB7280130FB007B088B
:10018000BC07F81FC428C528B62801300310BE0DCF
:10019000BF0DFF3E031DC62878087A02031DD22832
:1001A00077087902031CD528D628DD287708F902BC
:1001B0007808031CFA03FA023E1401300310F80C0D
:1001C000F70CFF3E031DDE280130BC02031DE928A9
:1001D000EA28C5283D080319EE28EF28F428BE09AF
:1001E000BF09BE0A0319BF0A3F08F8003E08F7001E
:1001F000080083120313BD01F31FFF2800290D29F6
:10020000F009F109F209F309F00A0319F10A0319D7
:10021000F20A0319F30ABD01BD0AF71F10291129BB
:100220002029F409F509F609F709F40A0319F50A72
:100230000319F60A0319F70A0130F8007808BD0619
:100240000030C1000030C0000030BF000030BE00F0
:10025000730872047104700403192F2930297D2951
:10026000BC01BC0A40290130F8000310F00DF10D6B
:10027000F20DF30DF80B35290130F8007808BC07B2
:10028000F31F4329442933290130F8000310BE0D20
:10029000BF0DC00DC10DF80B462973087702031D71
:1002A0005B2972087602031D5B2971087502031D24
:1002B0005B2970087402031C5E295F296E2970088F
:1002C000F4027108031C710FF5027208031C720F0F
:1002D000F6027308031C730FF7023E14013003107B
:1002E000F30CF20CF10CF00CFF3E031D6F290130F2
:1002F000BC02031D7C297D2944293D08031981295D
:1003000082298D29BE09BF09C009C109BE0A031986
:10031000BF0A0319C00A0319C10A4108F3004008C3
:10032000F2003F08F1003E08F000080083120313BA
:100330004208C6004308C7004408C8004508C90071
:1003400006300310C60DC70DC80DC90DFF3E031DB5
:10035000A1294908F3004808F2004708F1004608BF
:10036000F0004208CA004308CB004408CC0045080E
:10037000CD0006300310CA0DCB0DCC0DCD0DFF3EC8
:10038000031DBA290030CE001230CF007A30D000E1
:100390000030D1004A08CE024B08031C4B0FD12974
:1003A000D229CF024C08031C4C0FD729D829D002E0
:1003B0004D08031C4D0FDD29DE29D1025108F7003D
:1003C0005008F6004F08F5004E08F4000A128A1192
:1003D000F9200A128A117108FA007008F900013038
:1003E0007A02003003197902031CF729F829542AEC
:1003F000831203134208C6004308C7004408C8001C
:100400004508C90004300310C60DC70DC80DC90D3D
:10041000FF3E031D032A4908F3004808F20047087D
:10042000F1004608F0004208CA004308CB00440827
:10043000CC004508CD0004300310CA0DCB0DCC0D07
:10044000CD0DFF3E031D1C2A0030CE001230CF0020
:100450007A30D0000030D1004A08CE024B08031C8D
:100460004B0F332A342ACF024C08031C4C0F392A75
:100470003A2AD0024D08031C4D0F3F2A402AD102D0
:100480005108F7005008F6004F08F5004E08F40038
:100490000A128A11F9200A128A117108FA007008EA
:1004A000F90083160313181501307A02003003197E
:1004B000790203185C2A5D2A6F2A790883160313D0
:1004C00099001812831203139817831603138717C2
:1004D00007178312031318168316031398160800C0
:1004E0000A128A154E270A128A110A128A159226B2
:1004F0000A128A110030F800F9000130FA000030C9
:10050000FB00333083120313D5005508FC000A1298
:100510008A1523270A128A110530F8000030F900E5
:100520000230FA000030FB00493083120313D5007B
:100530005508FC000A128A1523270A128A118230F4
:10054000F0000030F1000A128A157A270A128A1187
:100550000030F800F9000130FA000030FB002330D1
:1005600083120313D5005508FC000A128A152327AD
:100570000A128A110530F8000030F9000230FA0042
:100580000030FB00433083120313D5005508FC00F4
:100590000A128A1523270A128A119630F0000030B9
:1005A000F1000A128A157A270A128A110030F8001F
:1005B000F9000130FA000030FB0001308312031310
:1005C000D5005508FC000A128A1523270A128A1141
:1005D0000030F800F9000230FA000030FB00123061
:1005E00083120313D5005508FC000A128A1523272D
:1005F0000A128A11003083120313C5000030C400B0
:100600002530C3008030C2000A128A1196210A12D6
:100610008A1183120313B001B1010A128A118A20D0
:100620000A128A11003A0319162B172B332B0A12C0
:100630008A1599260A128A1183120313D500D6014E
:100640005508BA005608BB00023083120313D700C6
:100650000430D600B930D500D50B2C2BD60B2C2B63
:10066000D70B2C2B332B8312031330083104031DBB
:100670003A2B3B2B462B3B08B9003A08B800013017
:10068000B0070318B10A0030B107772B30033104EB
:10069000031D4B2B4C2B572B3B08B7003A08B600D9
:1006A0000130B0070318B10A0030B107772B0230D0
:1006B00030063104031D5D2B5E2B692B3B08B50012
:1006C0003A08B4000130B0070318B10A0030B1078E
:1006D000772B033030063104031D6F2B702B772BE3
:1006E0003B08B3003A08B200B001B101772B3808DB
:1006F0000A128A11A2230A128A11831203133608DE
:100700000A128A11C9250A128A111430F000003029
:10071000F1000A128A157A270A128A11831203132A
:1007200034080A128A11A2230A128A1183120313AF
:1007300032080A128A11C9250A128A110D2B0A12CF
:100740008A11002883120313D200FA305202031CCC
:10075000AA2BAB2BAF2BFA30C0004008D200D4013B
:100760003230F7000030F8003230F0000030F10095
:100770005208C000C1014008F2004108F3000A120B
:100780008A15A7270A128A11831203135208C2007E
:1007900070084202F90071090318013EFA000A12BA
:1007A0008A1190200A128A11770883120313C3005A
:1007B0004308CB005208C000C1014008F2004108C4
:1007C000F3003230F0000030F1000A128A15A7273A
:1007D0000A128A11710883120313CF007008CE0029
:1007E0000530F7000030F8003230F0000030F10042
:1007F0005208C000C1014008F2004108F3000A128B
:100800008A15A7270A128A11700883120313C200DF
:100810007108C3000530F0000030F1004F08F3000C
:100820004E08F2000A128A15A7270A128A117008C8
:10083000831203134202F9007108031C710A430278
:10084000FA000A128A1190200A128A11770883127C
:100850000313C4004408CC005208C000C101400882
:10086000F2004108F3003230F0000030F1000A12CB
:100870008A15A7270A128A11710883120313CF0061
:100880007008CE000530F0000030F1004F08F30092
:100890004E08F2000A128A15A7270A128A11700858
:1008A00083120313C0004007C1004108CD0045304A
:1008B00084000630FF0083138001840AFF0B5B2C49
:1008C0004B08C000C1014008C5004108C6004C08E3
:1008D000C000C1014008C7004108C8004D08C00061
:1008E000C1014008C9004108CA00D001D1018312EA
:1008F00003135008C0004007453E840083130008DE
:10090000C1004108D30050085104031D882C892CD4
:100910008A2CD40150035104031D8F2C902C942C4D
:100920000230C0004008D400023050065104031DBC
:100930009A2C9B2C9F2C0330C0004008D4005308F5
:10094000031DA32CA42CB82C5408C000C1014008DE
:10095000F8004108F9000230FA000030FB00503086
:10096000C2004208FC000A128A1523270A128A11C3
:10097000831203135303031DBE2CBF2CD32C540826
:10098000C000C1014008F8004108F9000230FA0037
:100990000030FB005630C2004208FC000A128A15E3
:1009A00023270A128A110230831203135306031DF0
:1009B000DA2CDB2CEF2C5408C000C1014008F800F1
:1009C0004108F9000230FA000030FB005C30C20040
:1009D0004208FC000A128A1523270A128A110330E2
:1009E000831203135306031DF62CF72C0B2D54080A
:1009F000C000C1014008F8004108F9000230FA00C7
:100A00000030FB006230C2004208FC000A128A1566
:100A100023270A128A110430831203135306031D7D
:100A2000122D132D272D5408C000C1014008F800D5
:100A30004108F9000230FA000030FB006830C200C3
:100A40004208FC000A128A1523270A128A1105306F
:100A5000831203135306031D2E2D2F2D432D5408EF
:100A6000C000C1014008F8004108F9000230FA0056
:100A70000030FB006E30C2004208FC000A128A15EA
:100A800023270A128A110630831203135306031D0B
:100A90004A2D4B2D5F2D5408C000C1014008F800BD
:100AA0004108F9000230FA000030FB007430C20047
:100AB0004208FC000A128A1523270A128A110730FD
:100AC000831203135306031D662D672D7B2D5408D7
:100AD000C000C1014008F8004108F9000230FA00E6
:100AE0000030FB007A30C2004208FC000A128A156E
:100AF00023270A128A110830831203135306031D99
:100B0000822D832D972D5408C000C1014008F800A4
:100B10004108F9000230FA000030FB007D30C200CD
:100B20004208FC000A128A1523270A128A1109308A
:100B3000831203135306031D9E2D9F2DB32D5408BE
:100B4000C000C1014008F8004108F9000230FA0075
:100B50000030FB008030C2004208FC000A128A15F7
:100B600023270A128A11013083120313D0070318B6
:100B7000D10A0030D1075108803AFF0080307F024F
:100B8000031DC42D03305002031CC72DC82D772C24
:100B9000080083120313D200FA305202031CD12D35
:100BA000D22DD62DFA30C0004008D200D401323008
:100BB000F7000030F8003230F0000030F100520849
:100BC000C000C1014008F2004108F3000A128A1572
:100BD000A7270A128A11831203135208C200700851
:100BE0004202F90071090318013EFA000A128A1143
:100BF00090200A128A11770883120313C300430856
:100C0000CB005208C000C1014008F2004108F300C7
:100C10003230F0000030F1000A128A15A7270A12BC
:100C20008A11710883120313CF007008CE000530BB
:100C3000F7000030F8003230F0000030F1005208C8
:100C4000C000C1014008F2004108F3000A128A15F1
:100C5000A7270A128A11700883120313C2007108B1
:100C6000C3000530F0000030F1004F08F3004E08DB
:100C7000F2000A128A15A7270A128A117008831235
:100C800003134202F9007108031C710A4302FA00BF
:100C90000A128A1190200A128A117708831203130C
:100CA000C4004408CC005208C000C1014008F20052
:100CB0004108F3003230F0000030F1000A128A15CA
:100CC000A7270A128A11710883120313CF00700834
:100CD000CE000530F0000030F1004F08F3004E0860
:100CE000F2000A128A15A7270A128A1170088312C5
:100CF0000313C0004007C1004108CD004530840007
:100D00000630FF0083138001840AFF0B822E4B08FC
:100D1000C000C1014008C5004108C6004C08C00021
:100D2000C1014008C7004108C8004D08C000C1010A
:100D30004008C9004108CA00D001D1018312031341
:100D40005008C0004007453E840083130008C100DE
:100D50004108D30050085104031DAF2EB02EB42E0D
:100D60000B30C0004008D40050035104031DB92EBD
:100D7000BA2EBE2E0D30C0004008D40002305006FE
:100D80005104031DC42EC52EC92E0E30C0004008CC
:100D9000D4005308031DCD2ECE2EE22E5408C000E1
:100DA000C1014008F8004108F9000230FA000030A3
:100DB000FB005030C2004208FC000A128A152327AB
:100DC0000A128A11831203135303031DE82EE92E1E
:100DD000FD2E5408C000C1014008F8004108F90088
:100DE0000230FA000030FB005630C2004208FC001E
:100DF0000A128A1523270A128A110230831203135A
:100E00005306031D042F052F192F5408C000C101DC
:100E10004008F8004108F9000230FA000030FB00F9
:100E20005C30C2004208FC000A128A1523270A120D
:100E30008A110330831203135306031D202F212F21
:100E4000352F5408C000C1014008F8004108F900DE
:100E50000230FA000030FB006230C2004208FC00A1
:100E60000A128A1523270A128A11043083120313E7
:100E70005306031D3C2F3D2F512F5408C000C101C4
:100E80004008F8004108F9000230FA000030FB0089
:100E90006830C2004208FC000A128A1523270A1291
:100EA0008A110530831203135306031D582F592F3F
:100EB0006D2F5408C000C1014008F8004108F90036
:100EC0000230FA000030FB006E30C2004208FC0025
:100ED0000A128A1523270A128A1106308312031375
:100EE0005306031D742F752F892F5408C000C101AC
:100EF0004008F8004108F9000230FA000030FB0019
:100F00007430C2004208FC000A128A1523270A1214
:100F10008A110730831203135306031D902F912F5C
:100F2000A52F5408C000C1014008F8004108F9008D
:100F30000230FA000030FB007A30C2004208FC00A8
:100F40000A128A1523270A128A1108308312031302
:100F50005306031DAC2FAD2FC12F5408C000C10193
:100F60004008F8004108F9000230FA000030FB00A8
:100F70007D30C2004208FC000A128A1523270A129B
:100F80008A110930831203135306031DC82FC92F7A
:100F9000DD2F5408C000C1014008F8004108F900E5
:100FA0000230FA000030FB008030C2004208FC0032
:100FB0000A128A1523270A128A1101308312031399
:100FC000D0070318D10A0030D1075108803AFF003A
:100FD00080307F02031DEE2F03305002031CF12FDF
:100FE000F22F9E2E08008313203084003C300A121A
:100FF0008A15A1260A128A1183010A128A11702AFF
:101D240001300A128A15A9260A128A15080083129C
:101D340003138C1E9E2E9F2E992E1A0808006400F1
:101D44008001840A0406031900340406A22EF70055
:101D5400831203130813770886000A128A15EB26E8
:101D64000A128A150230F0000030F1000A128A15B6
:101D74007A270A128A150800F5008312031308173C
:101D8400750886000A128A15EB260A128A15323063
:101D9400F0000030F1000A128A15D3260A128A15BF
:101DA4000800F301F401DC2E0130F3070318F40AF0
:101DB4000030F4077408803AF2007108803A720225
:101DC400031DE62E70087302031CE92EEA2ED62E9C
:101DD40008008312031388170530F0000030F10067
:101DE4000A128A15D3260A128A158312031388133A
:101DF4000530F0000030F1000A128A15D3260A12C9
:101E04008A150800F700162F770884000A128A1131
:101E140003200A128A150A128A15BE260A128A1586
:101E24000130F6007608F707770884000A128A1151
:101E340003200A128A15003A031D212F222F062F90
:101E44000800342F7808803EFD007D0883120313B8
:101E5400BC00412F7808C03EFD007D0883120313A7
:101E6400BC00412F7B08003A0319392F242F7A082C
:101E7400013A0319242F033A03192C2F242F3C0869
:101E84000A128A15A9260A128A157C080A128A15CA
:101E940004270A128A1508008316031308138813EB
:101EA4008601831203130813881386013230F0006D
:101EB4000030F1000A128A157A270A128A150230B4
:101EC4000A128A15A9260A128A1538300A128A15A6
:101ED400A9260A128A150C300A128A15A9260A1292
:101EE4008A1506300A128A15A9260A128A150800CC
:101EF400F301F401982FF501F6010130F5070318F9
:101F0400F60A0030F6077608803AFF0080307F0238
:101F1400031D8E2FFF307502031C912F922F7F2FEC
:101F24000130F3070318F40A0030F4077408803A08
:101F3400F2007108803A7202031DA22F7008730226
:101F4400031CA52FA62F7D2F0800F601F31FAB2F2E
:101F5400AC2FB32FF209F309F20A0319F30AF601BD
:101F6400F60AF11FB62FB72FBC2FF009F109F00ABA
:101F74000319F10A700871040319C12FC22FF12F3C
:101F8400F501F50AD02F01300310F00DF10DFF3EDD
:101F9400031DC62F0130F4007408F507F11FD32F79
:101FA400D42FC52F71087302031DDA2F7008720233
:101FB400031CDD2FDE2FE42F7008F2027108031CCE
:101FC400F303F30201300310F10CF00CFF3E031D88
:101FD400E52F0130F502031DF02FF12FD42F7608E1
:101FE4000319F52FF62FFB2FF209F309F20A03194F
:0C1FF400F30A7308F1007208F000080006
:04400E00F5E3FFFFD8
:00000001FF
