:020000040000FA
:060000000A128A1110280B
:10000800FE00030EF2000A08F300831203137F08B0
:10001800F4000A128A11B82E0A128A111328F5015F
:10002800F601F701F8018313463084005E300A12A6
:100038008A15A8270A128A1183010A128A11752CB7
:1000480083120313C000FA304002031C2C282D2809
:100058003128FA30B0003008C000C4013230A7009F
:100068000030A8003230A0000030A1004008B000E5
:10007800B1013008A2003108A3000A128A115D26D6
:100088000A128A11831203134008B20020083202B0
:10009800A90021090318013EAA000A128A11F425B1
:1000A8000A128A11831203132708B3003308BB000E
:1000B8004008B000B1013008A2003108A300323076
:1000C800A0000030A1000A128A115D260A128A11C6
:1000D800831203132108BF002008BE000530A700C3
:1000E8000030A8003230A0000030A1004008B00065
:1000F800B1013008A2003108A3000A128A115D2656
:100108000A128A11831203132008B2002108B300CF
:100118000530A0000030A1003F08A3003E08A2005F
:100128000A128A115D260A128A1183120313200803
:100138003202A9002108031C210A3302AA000A126C
:100148008A11F4250A128A11831203132708B400AE
:100158003408BC004008B000B1013008A2003108E2
:10016800A3003230A0000030A1000A128A115D26D7
:100178000A128A11831203132108BF002008BE0047
:100188000530A0000030A1003F08A3003E08A200EF
:100198000A128A115D260A128A1183120313200893
:1001A800B0003007B1003108BD003530840006309A
:1001B800FF0083138001840AFF0BDD283B08B00091
:1001C800B1013008B5003108B6003C08B000B101F3
:1001D8003008B7003108B8003D08B000B101300858
:1001E800B9003108BA00C101C201831203134108E2
:1001F800B0003007353E840083130008B100310891
:10020800C30041084204031D0A290B290F290B309A
:10021800B0003008C40041034204031D1429152905
:1002280019290D30B0003008C400023041064204DC
:10023800031D1F29202924290E30B0003008C400CE
:100248004308031D282929293D294408B000B10184
:100258003008A8003108A9000230AA000030AB001D
:100268005030B2003208AC000A128A1155270A121F
:100278008A11831203134303031D43294429582970
:100288004408B000B1013008A8003108A9000230C4
:10029800AA000030AB005630B2003208AC000A1297
:1002A8008A1155270A128A11023083120313430652
:1002B800031D5F29602974294408B000B101300882
:1002C800A8003108A9000230AA000030AB005C3059
:1002D800B2003208AC000A128A1155270A128A1194
:1002E8000330831203134306031D7B297C299029BD
:1002F8004408B000B1013008A8003108A900023054
:10030800AA000030AB006230B2003208AC000A121A
:100318008A1155270A128A110430831203134306DF
:10032800031D97299829AC294408B000B101300869
:10033800A8003108A9000230AA000030AB006830DC
:10034800B2003208AC000A128A1155270A128A1123
:100358000530831203134306031DB329B429C829A2
:100368004408B000B1013008A8003108A9000230E3
:10037800AA000030AB006E30B2003208AC000A129E
:100388008A1155270A128A1106308312031343066D
:10039800031DCF29D029E4294408B000B101300851
:1003A800A8003108A9000230AA000030AB00743060
:1003B800B2003208AC000A128A1155270A128A11B3
:1003C8000730831203134306031DEB29EC29002A87
:1003D8004408B000B1013008A8003108A900023073
:1003E800AA000030AB007A30B2003208AC000A1222
:1003F8008A1155270A128A110830831203134306FB
:10040800031D072A082A1C2A4408B000B101300835
:10041800A8003108A9000230AA000030AB007D30E6
:10042800B2003208AC000A128A1155270A128A1142
:100438000930831203134306031D232A242A382A6A
:100448004408B000B1013008A8003108A900023002
:10045800AA000030AB008030B2003208AC000A12AB
:100468008A1155270A128A11013083120313C10712
:100478000318C20A0030C2074208803AFF008030E1
:100488007F02031D492A03304102031C4C2A4D2ACE
:10049800F928080083120313C000FA304002031C35
:1004A800562A572A5B2AFA30B0003008C000C40127
:1004B8003230A7000030A8003230A0000030A10080
:1004C8004008B000B1013008A2003108A3000A12A8
:1004D8008A115D260A128A11831203134008B2009A
:1004E80020083202A90021090318013EAA000A12B5
:1004F8008A11F4250A128A11831203132708B300FC
:100508003308BB004008B000B1013008A200310830
:10051800A3003230A0000030A1000A128A115D2623
:100528000A128A11831203132108BF002008BE0093
:100538000530A7000030A8003230A0000030A1002C
:100548004008B000B1013008A2003108A3000A1227
:100558008A115D260A128A11831203132008B20039
:100568002108B3000530A0000030A1003F08A30017
:100578003E08A2000A128A115D260A128A11831205
:10058800031320083202A9002108031C210A3302A0
:10059800AA000A128A11F4250A128A118312031377
:1005A8002708B4003408BC004008B000B101300886
:1005B800A2003108A3003230A0000030A1000A12C6
:1005C8008A115D260A128A11831203132108BF00BB
:1005D8002008BE000530A0000030A1003F08A3009D
:1005E8003E08A2000A128A115D260A128A11831295
:1005F80003132008B0003007B1003108BD003530C2
:1006080084000630FF0083138001840AFF0B072B48
:100618003B08B000B1013008B5003108B6003C080D
:10062800B000B1013008B7003108B8003D08B0008B
:10063800B1013008B9003108BA00C101C201831202
:1006480003134108B0003007353E840083130008C7
:10065800B1003108C30041084204031D342B352B77
:10066800362BC40141034204031D3B2B3C2B402B7A
:100678000230B0003008C400023041064204031DB5
:10068800462B472B4B2B0330B0003008C4004308DF
:10069800031D4F2B502B642B4408B000B1013008C8
:1006A800A8003108A9000230AA000030AB00503081
:1006B800B2003208AC000A128A1155270A128A11B0
:1006C800831203134303031D6A2B6B2B7F2B4408F0
:1006D800B000B1013008A8003108A9000230AA0012
:1006E8000030AB005630B2003208AC000A128A1152
:1006F80055270A128A110230831203134306031D79
:10070800862B872B9B2B4408B000B1013008A8002A
:100718003108A9000230AA000030AB005C30B200FA
:100728003208AC000A128A1155270A128A110330BE
:10073800831203134306031DA22BA32BB72B4408D4
:10074800B000B1013008A8003108A9000230AA00A1
:100758000030AB006230B2003208AC000A128A11D5
:1007680055270A128A110430831203134306031D06
:10077800BE2BBF2BD32B4408B000B1013008A80012
:100788003108A9000230AA000030AB006830B2007E
:100798003208AC000A128A1155270A128A1105304C
:1007A800831203134306031DDA2BDB2BEF2B4408BC
:1007B800B000B1013008A8003108A9000230AA0031
:1007C8000030AB006E30B2003208AC000A128A1159
:1007D80055270A128A110630831203134306031D94
:1007E800F62BF72B0B2C4408B000B1013008A800F9
:1007F8003108A9000230AA000030AB007430B20002
:100808003208AC000A128A1155270A128A110730D9
:10081800831203134306031D122C132C272C4408A0
:10082800B000B1013008A8003108A9000230AA00C0
:100838000030AB007A30B2003208AC000A128A11DC
:1008480055270A128A110830831203134306031D21
:100858002E2C2F2C432C4408B000B1013008A800DE
:100868003108A9000230AA000030AB007D30B20088
:100878003208AC000A128A1155270A128A11093067
:10088800831203134306031D4A2C4B2C5F2C440888
:10089800B000B1013008A8003108A9000230AA0050
:1008A8000030AB008030B2003208AC000A128A1166
:1008B80055270A128A11013083120313C10703183E
:1008C800C20A0030C2074208803AFF0080307F0227
:1008D800031D702C03304102031C732C742C232B32
:1008E80008000A128A1129270A128A110A128A157F
:1008F800A1270A128A11003083120313A800A90045
:100908000130AA000030AB003330C5004508AC0008
:100918000A128A1155270A128A1105308312031305
:10092800A8000030A9000230AA000030AB0049300E
:10093800C5004508AC000A128A1155270A128A1107
:10094800823083120313A0000030A1000A128A111A
:10095800F4260A128A11003083120313A800A90092
:100968000130AA000030AB002330C5004508AC00B8
:100978000A128A1155270A128A11053083120313A5
:10098800A8000030A9000230AA000030AB004330B4
:10099800C5004508AC000A128A1155270A128A11A7
:1009A800F43083120313A0000130A1000A128A1147
:1009B800F4260A128A11003083120313A800A90032
:1009C8000130AA000030AB000130C5004508AC007A
:1009D8000A128A1155270A128A110030831203134A
:1009E800A800A9000230AA000030AB001230C500F0
:1009F8004508AC000A128A1155270A128A110A12F0
:100A08008A11A3270A128A1177087804031D0D2D6D
:100A18000E2D152D760883120313DD007508DC00F2
:100A28003E2D77037804031D1A2D1B2D222D7608E1
:100A380083120313DB007508DA003E2D02307706B7
:100A48007804031D282D292D302D760883120313D1
:100A5800D9007508D8003E2D033077067804031DA9
:100A6800362D372D3E2D760883120313D7007508CF
:100A7800D6003E2D831203135C080A128A114E22F7
:100A88000A128A11831203135A080A128A1124209F
:100A98000A128A11143083120313A0000030A10037
:100AA8000A128A11F4260A128A11831203135808AB
:100AB8000A128A114E220A128A1183120313560847
:100AC8000A128A1124200A128A11082D0A128A1180
:100AD800102805308A000408840A8207003441344B
:100AE800443443342034203443344F3455344E3462
:100AF800543445345234203446344F34543400345A
:100B080020342E34203420345634203420342034F9
:100B180020342034203420342E34203420345634E9
:100B280000344C34413442344F3452344134543418
:100B38004F34523449344F3420343534203420343F
:100B48000034453473347434753461347234643425
:100B58006F3420344D3461346E34633469346F3407
:100B680000344934323443342034203400343134AE
:100B7800383430343234373400343034303400349C
:100B88003134303400343034313400343134313499
:100B980000343034323400343134323400343034B8
:100BA80033340034313433340034303434340034A2
:100BB800313434340034303435340034313435345D
:100BC8000034303436340034313436340034303480
:100BD8003734003430343834003430343934003465
:100BE80083120313AD01A81FFA2DFB2D022EA709AE
:100BF800A809A70A0319A80AAD01AD0AAA1F052E5C
:100C0800062E0F2EA909AA09A90A0319AA0A013052
:100C1800AB002B08AD06AE01AF0127082804031965
:100C2800162E172E4E2EAC01AC0A252E01300310BD
:100C3800A70DA80DFF3E031D1B2E0130AB002B088E
:100C4800AC07A81F282E292E1A2E01300310AE0D2E
:100C5800AF0DFF3E031D2A2E28082A02031D362E3B
:100C680027082902031C392E3A2E412E2708A902EB
:100C78002808031CAA03AA022E1401300310A80C8A
:100C8800A70CFF3E031D422E0130AC02031D4D2E62
:100C98004E2E292E2D080319522E532E582EAE09EA
:100CA800AF09AE0A0319AF0A2F08A8002E08A7003B
:100CB800080083120313A601A31F632E642E6B2E54
:100CC800A209A309A20A0319A30AA601A60AA11F39
:100CD8006E2E6F2E742EA009A109A00A0319A10A6D
:100CE800200821040319792E7A2EA92EA501A50A18
:100CF800882E01300310A00DA10DFF3E031D7E2E8E
:100D08000130A4002408A507A11F8B2E8C2E7D2E50
:100D180021082302031D922E20082202031C952E6F
:100D2800962E9C2E2008A2022108031CA303A302CE
:100D380001300310A10CA00CFF3E031D9D2E0130B5
:100D4800A502031DA82EA92E8C2E26080319AD2E48
:100D5800AE2EB32EA209A309A20A0319A30A2308D7
:100D6800A1002208A00008008C1DBB2EBC2EEB2E73
:100D78007808803AFF0080307F02031DC52E0330BB
:100D880077020318C82EC92EDB2E0A128A15B0273F
:100D98000A128A11F000F1017008F5007108F600D6
:100DA8000130F7070318F80A0030F807E82E0A128E
:100DB8008A15B0270A128A11F000F1017008F500AF
:100DC8007108F600F701F801831203138C117408F7
:100DD800FF0073088A00720E8300FE0E7E0E090063
:100DE80083120313A301A4011A2F83120313A5016D
:100DF800A601013083120313A5070318A60A0030C1
:100E0800A6072608803AFF0080307F02031D0E2FB8
:100E1800FF302502031C112F122FFD2E01308312E3
:100E28000313A3070318A40A0030A4072408803A70
:100E3800A2002108803A2202031D242F2008230241
:100E4800031C272F282FF92E0800831603130813D5
:100E5800881386018312031308138813860132301E
:100E6800A0000030A1000A128A11F4260A128A1181
:100E780002300A128A15B9270A128A1138300A1262
:100E88008A15B9270A128A110C300A128A15B9274D
:100E98000A128A1106300A128A15B9270A128A110B
:100EA8000800622F2808803EAD002D08AE00712F83
:100EB8002808C03EAD002D08AE00712F8312031321
:100EC8002B08003A0319692F562F2A08013A0319EB
:100ED800562F033A03195C2F562F2E080A128A152B
:100EE800B9270A128A11831203132C080A128A11CD
:100EF80080270A128A11080083120313A700962F6D
:100F0800270884000A128A116D250A128A110A120A
:100F18008A15D0270A128A11013083120313A600FA
:100F28002608A707270884000A128A116D250A12C5
:100F38008A11003A031DA12FA22F842F08008316BF
:100F48000317880189018316031386018801831218
:100F58000313860188018B170B178C118316031353
:100F68008C15851683120313A001A101A201243058
:100F78000A128A11C4270A128A11F701F801080017
:100F880083120313A3008316031387128312031318
:100F9800231DCF2FD02FD62F22088316031394009A
:100FA8008715DC2F20082204831603139400871169
:100FB80083120313230821049400080083120313E7
:100FC800A301A401EF2F013083120313A307031811
:100FD800A40A0030A4072408803AA2002108803A15
:100FE8002202031DF92F20082302031CFC2FFD2FCA
:040FF800E72F0800D7
:101F340083160313141C9F2FA02F9A2F080001301F
:101F44000A128A15B9270A128A150800640080014A
:101F5400840A0406031900340406A92F0A128A15F8
:101F64009A270A128A15831203131308080083128E
:101F74000313A7000813270886000A128A15E72707
:101F84000A128A15023083120313A0000030A10044
:101F94000A128A11F4260A128A15080083120313FE
:101FA400A5000817250886000A128A15E7270A12D1
:101FB4008A15323083120313A0000030A1000A12E4
:101FC4008A11E2270A128A1508008312031388175C
:101FD4000530A0000030A1000A128A11E2270A127B
:101FE4008A158312031388130530A0000030A10062
:0C1FF4000A128A11E2270A128A1508005E
:04400E00D6E0FFFFFA
:00000001FF
