:020000040000FA
:060000000A128A110C280F
:10000800FE00030EFA000A08FB000A128A111F28D4
:100018000A128A110F28F001F101F201F301F4012B
:10002800F501F601F70183120313A001A101830171
:100038000A128A112F290B1C2228232838288312F8
:100048000313861B282829282E280130F2000030A7
:10005800F3003628061B3128322836280130F000F4
:100068000030F1000B10A228831203138C1D3D28C9
:100078003E28A2281412141B422843284728941FFC
:100088004628472851281308F800F9017808F40091
:100098007908F50014139413141683160313941A8D
:1000A800562857287B2814195A285B287B2883123E
:1000B80003131308F800F9017808F4007908F5002B
:1000C8008C11141683160313141C6B286C286628CD
:1000D800831203131308F800F9017808A0007908BF
:1000E800A100A630F800F80B772800009F28941A82
:1000F8007E287F289F28141D822883289F28831202
:1001080003131308F800F9017808F4007908F500DA
:10011800831603131410760883120313930014161E
:10012800A630F800F80B962800008316031314185D
:100138009E289F289928831203138C117B088A0014
:100148007A0E8300FE0E7E0E090083120313861FAB
:10015800AE28AF28CE2872037304031DB428B5282F
:10016800CE287708803AFF0080307F02031DBE2822
:100178000F3076020318C128C228C9280130F607B3
:100188000318F70A0030F707CB28F601F701F20148
:10019800F301F228061FD128D228F228700371042F
:1001A800031DD728D828F2287708803AFF00803026
:1001B8007F02031DE12801307602031CE428E528AC
:1001C800EC28FF30F6070318F70AFF30F707F02886
:1001D8000F30F6000030F700F001F1010800831637
:1001E80003138501831603178801FF308316031351
:1001F8008600FF309600831603178901F601F70180
:10020800F201F301F001F1010B178B150B108B179D
:1002180032300A128A1113210A128A110800831235
:100228000313A200220883160313930036308312A7
:100238000313940080308316031394000130910057
:10024800871507168B170B17831203138C11831648
:1002580003138C1508000A128A11F3200A128A1156
:100268000A128A11A9200A128A1176088312031326
:0A027800850034290A128A110C28AF
:04400E00F5E3FFFFD8
:00000001FF
